{
  "address": "0x571d90095ebAC3650E61B6f85a955Be17166eF60",
  "abi": [
    {
      "inputs": [
        {
          "internalType": "contract IORVote",
          "name": "_voteToken",
          "type": "address"
        },
        {
          "internalType": "contract IERC20",
          "name": "_stakeToken",
          "type": "address"
        },
        {
          "internalType": "uint256",
          "name": "_voteTokenPerBlock",
          "type": "uint256"
        },
        {
          "internalType": "uint256",
          "name": "_startBlock",
          "type": "uint256"
        }
      ],
      "stateMutability": "nonpayable",
      "type": "constructor"
    },
    {
      "anonymous": false,
      "inputs": [
        {
          "indexed": true,
          "internalType": "address",
          "name": "user",
          "type": "address"
        },
        {
          "indexed": true,
          "internalType": "uint256",
          "name": "pid",
          "type": "uint256"
        }
      ],
      "name": "Claim",
      "type": "event"
    },
    {
      "anonymous": false,
      "inputs": [
        {
          "indexed": true,
          "internalType": "address",
          "name": "user",
          "type": "address"
        },
        {
          "indexed": true,
          "internalType": "uint256",
          "name": "pid",
          "type": "uint256"
        },
        {
          "indexed": false,
          "internalType": "uint256",
          "name": "amount",
          "type": "uint256"
        }
      ],
      "name": "Deposit",
      "type": "event"
    },
    {
      "anonymous": false,
      "inputs": [
        {
          "indexed": true,
          "internalType": "address",
          "name": "user",
          "type": "address"
        },
        {
          "indexed": true,
          "internalType": "uint256",
          "name": "pid",
          "type": "uint256"
        },
        {
          "indexed": false,
          "internalType": "uint256",
          "name": "amount",
          "type": "uint256"
        }
      ],
      "name": "EmergencyWithdraw",
      "type": "event"
    },
    {
      "anonymous": false,
      "inputs": [
        {
          "indexed": true,
          "internalType": "address",
          "name": "previousOwner",
          "type": "address"
        },
        {
          "indexed": true,
          "internalType": "address",
          "name": "newOwner",
          "type": "address"
        }
      ],
      "name": "OwnershipTransferred",
      "type": "event"
    },
    {
      "anonymous": false,
      "inputs": [
        {
          "indexed": true,
          "internalType": "address",
          "name": "user",
          "type": "address"
        },
        {
          "indexed": true,
          "internalType": "uint256",
          "name": "pid",
          "type": "uint256"
        },
        {
          "indexed": false,
          "internalType": "uint256",
          "name": "amount",
          "type": "uint256"
        }
      ],
      "name": "Withdraw",
      "type": "event"
    },
    {
      "inputs": [
        {
          "internalType": "uint256",
          "name": "allocPoint",
          "type": "uint256"
        },
        {
          "internalType": "contract IERC20",
          "name": "token",
          "type": "address"
        },
        {
          "internalType": "uint256",
          "name": "timeLock",
          "type": "uint256"
        },
        {
          "internalType": "uint256",
          "name": "multiplier",
          "type": "uint256"
        }
      ],
      "name": "add",
      "outputs": [],
      "stateMutability": "nonpayable",
      "type": "function"
    },
    {
      "inputs": [
        {
          "internalType": "uint256",
          "name": "pid",
          "type": "uint256"
        }
      ],
      "name": "claim",
      "outputs": [],
      "stateMutability": "nonpayable",
      "type": "function"
    },
    {
      "inputs": [
        {
          "internalType": "uint256",
          "name": "pid",
          "type": "uint256"
        },
        {
          "internalType": "uint256",
          "name": "amount",
          "type": "uint256"
        }
      ],
      "name": "deposit",
      "outputs": [],
      "stateMutability": "nonpayable",
      "type": "function"
    },
    {
      "inputs": [
        {
          "internalType": "uint256",
          "name": "pid",
          "type": "uint256"
        }
      ],
      "name": "emergencyWithdraw",
      "outputs": [],
      "stateMutability": "nonpayable",
      "type": "function"
    },
    {
      "inputs": [
        {
          "internalType": "uint256",
          "name": "from",
          "type": "uint256"
        },
        {
          "internalType": "uint256",
          "name": "to",
          "type": "uint256"
        },
        {
          "internalType": "uint256",
          "name": "poolMultiplier",
          "type": "uint256"
        }
      ],
      "name": "getMultiplier",
      "outputs": [
        {
          "internalType": "uint256",
          "name": "",
          "type": "uint256"
        }
      ],
      "stateMutability": "pure",
      "type": "function"
    },
    {
      "inputs": [],
      "name": "massUpdatePools",
      "outputs": [],
      "stateMutability": "nonpayable",
      "type": "function"
    },
    {
      "inputs": [],
      "name": "owner",
      "outputs": [
        {
          "internalType": "address",
          "name": "",
          "type": "address"
        }
      ],
      "stateMutability": "view",
      "type": "function"
    },
    {
      "inputs": [
        {
          "internalType": "uint256",
          "name": "pid",
          "type": "uint256"
        },
        {
          "internalType": "address",
          "name": "user",
          "type": "address"
        }
      ],
      "name": "pendingVoteToken",
      "outputs": [
        {
          "internalType": "uint256",
          "name": "",
          "type": "uint256"
        }
      ],
      "stateMutability": "view",
      "type": "function"
    },
    {
      "inputs": [
        {
          "internalType": "uint256",
          "name": "",
          "type": "uint256"
        }
      ],
      "name": "poolInfo",
      "outputs": [
        {
          "internalType": "contract IERC20",
          "name": "stakeToken",
          "type": "address"
        },
        {
          "internalType": "uint256",
          "name": "allocPoint",
          "type": "uint256"
        },
        {
          "internalType": "uint256",
          "name": "lastRewardBlock",
          "type": "uint256"
        },
        {
          "internalType": "uint256",
          "name": "accVoteTokenPerShare",
          "type": "uint256"
        },
        {
          "internalType": "uint256",
          "name": "timeLock",
          "type": "uint256"
        },
        {
          "internalType": "uint256",
          "name": "multiplier",
          "type": "uint256"
        },
        {
          "internalType": "uint256",
          "name": "totalStaked",
          "type": "uint256"
        }
      ],
      "stateMutability": "view",
      "type": "function"
    },
    {
      "inputs": [],
      "name": "poolLength",
      "outputs": [
        {
          "internalType": "uint256",
          "name": "",
          "type": "uint256"
        }
      ],
      "stateMutability": "view",
      "type": "function"
    },
    {
      "inputs": [],
      "name": "renounceOwnership",
      "outputs": [],
      "stateMutability": "nonpayable",
      "type": "function"
    },
    {
      "inputs": [
        {
          "internalType": "uint256",
          "name": "pid",
          "type": "uint256"
        },
        {
          "internalType": "uint256",
          "name": "allocPoint",
          "type": "uint256"
        }
      ],
      "name": "set",
      "outputs": [],
      "stateMutability": "nonpayable",
      "type": "function"
    },
    {
      "inputs": [],
      "name": "stakeToken",
      "outputs": [
        {
          "internalType": "contract IERC20",
          "name": "",
          "type": "address"
        }
      ],
      "stateMutability": "view",
      "type": "function"
    },
    {
      "inputs": [],
      "name": "startBlock",
      "outputs": [
        {
          "internalType": "uint256",
          "name": "",
          "type": "uint256"
        }
      ],
      "stateMutability": "view",
      "type": "function"
    },
    {
      "inputs": [],
      "name": "totalAllocPoint",
      "outputs": [
        {
          "internalType": "uint256",
          "name": "",
          "type": "uint256"
        }
      ],
      "stateMutability": "view",
      "type": "function"
    },
    {
      "inputs": [
        {
          "internalType": "address",
          "name": "newOwner",
          "type": "address"
        }
      ],
      "name": "transferOwnership",
      "outputs": [],
      "stateMutability": "nonpayable",
      "type": "function"
    },
    {
      "inputs": [
        {
          "internalType": "uint256",
          "name": "pid",
          "type": "uint256"
        }
      ],
      "name": "updatePool",
      "outputs": [],
      "stateMutability": "nonpayable",
      "type": "function"
    },
    {
      "inputs": [
        {
          "internalType": "uint256",
          "name": "_newVoteTokenPerBlock",
          "type": "uint256"
        }
      ],
      "name": "updateVoteTokenPerBlock",
      "outputs": [],
      "stateMutability": "nonpayable",
      "type": "function"
    },
    {
      "inputs": [
        {
          "internalType": "uint256",
          "name": "",
          "type": "uint256"
        },
        {
          "internalType": "address",
          "name": "",
          "type": "address"
        }
      ],
      "name": "userInfo",
      "outputs": [
        {
          "internalType": "uint256",
          "name": "amount",
          "type": "uint256"
        },
        {
          "internalType": "uint256",
          "name": "rewardDebt",
          "type": "uint256"
        },
        {
          "internalType": "uint256",
          "name": "depositTimestamp",
          "type": "uint256"
        }
      ],
      "stateMutability": "view",
      "type": "function"
    },
    {
      "inputs": [],
      "name": "voteToken",
      "outputs": [
        {
          "internalType": "contract IORVote",
          "name": "",
          "type": "address"
        }
      ],
      "stateMutability": "view",
      "type": "function"
    },
    {
      "inputs": [],
      "name": "voteTokenPerBlock",
      "outputs": [
        {
          "internalType": "uint256",
          "name": "",
          "type": "uint256"
        }
      ],
      "stateMutability": "view",
      "type": "function"
    },
    {
      "inputs": [
        {
          "internalType": "uint256",
          "name": "pid",
          "type": "uint256"
        },
        {
          "internalType": "uint256",
          "name": "amount",
          "type": "uint256"
        }
      ],
      "name": "withdraw",
      "outputs": [],
      "stateMutability": "nonpayable",
      "type": "function"
    }
  ],
  "transactionHash": "0x29a3610a1e93ecfbb29b2ffde7b5e4dce6e623aeef22cd44bc9b54a85b3cfa2f",
  "args": [
    "0x3D3f1b16aE9e681191798527265CcEf79c2e10CE",
    "0x1b71dC069b6531B5C443f75E8924299Da57C7dE9",
    "2880000000000000000",
    "0"
  ],
  "numDeployments": 1,
  "solcInputHash": "7fe6b499d6a59a182d175109373bddc9",
  "bytecode": "0x60806040523480156200001157600080fd5b5060405162001875380380620018758339810160408190526200003491620000eb565b6200003f3362000082565b60018055600280546001600160a01b039586166001600160a01b031991821617909155600380549490951693169290921790925560069190915560085562000138565b600080546001600160a01b038381166001600160a01b0319831681178455604051919092169283917f8be0079c531659141344cd1fd0a4f28419497f9722a3daafe3b4186f6b6457e09190a35050565b6001600160a01b0381168114620000e857600080fd5b50565b600080600080608085870312156200010257600080fd5b84516200010f81620000d2565b60208601519094506200012281620000d2565b6040860151606090960151949790965092505050565b61172d80620001486000396000f3fe608060405234801561001057600080fd5b50600436106101425760003560e01c8063630b5ba1116100b857806391b706931161007c57806391b70693146102a857806393f1a40b146102bb578063a666947414610310578063c7dcecec14610319578063e2bbb1581461032c578063f2fde38b1461033f57600080fd5b8063630b5ba114610261578063715018a6146102695780637bafb029146102715780638a0c89d2146102845780638da5cb5b1461029757600080fd5b8063379607f51161010a578063379607f5146101f9578063441a3e701461020c57806348cd4cb11461021f57806351eb05a61461022857806351ed6a301461023b5780635312ea8e1461024e57600080fd5b8063081e3eda146101475780631526fe271461015e578063160d66ae146101b057806317caf6f1146101db5780631ab06ee5146101e4575b600080fd5b6004545b6040519081526020015b60405180910390f35b61017161016c36600461141a565b610352565b604080516001600160a01b0390981688526020880196909652948601939093526060850191909152608084015260a083015260c082015260e001610155565b6002546101c3906001600160a01b031681565b6040516001600160a01b039091168152602001610155565b61014b60075481565b6101f76101f2366004611433565b6103ab565b005b6101f761020736600461141a565b61045c565b6101f761021a366004611433565b6105bd565b61014b60085481565b6101f761023636600461141a565b6107fc565b6003546101c3906001600160a01b031681565b6101f761025c36600461141a565b61092f565b6101f7610a66565b6101f7610a91565b61014b61027f366004611455565b610ac7565b6101f7610292366004611496565b610ae1565b6000546001600160a01b03166101c3565b61014b6102b63660046114d3565b610d0e565b6102f56102c93660046114d3565b600560209081526000928352604080842090915290825290208054600182015460029092015490919083565b60408051938452602084019290925290820152606001610155565b61014b60065481565b6101f761032736600461141a565b610e0d565b6101f761033a366004611433565b610e3c565b6101f761034d366004611503565b610fe2565b6004818154811061036257600080fd5b600091825260209091206007909102018054600182015460028301546003840154600485015460058601546006909601546001600160a01b039095169650929491939092919087565b6000546001600160a01b031633146103de5760405162461bcd60e51b81526004016103d590611520565b60405180910390fd5b6103e6610a66565b610429816104236004858154811061040057610400611555565b90600052602060002090600702016001015460075461107d90919063ffffffff16565b90611089565b600781905550806004838154811061044357610443611555565b9060005260206000209060070201600101819055505050565b60026001540361047e5760405162461bcd60e51b81526004016103d59061156b565b600260015560045481106104cc5760405162461bcd60e51b81526020600482015260156024820152746465706f7369743a20706f6f6c206578697374733f60581b60448201526064016103d5565b6000600482815481106104e1576104e1611555565b60009182526020808320858452600582526040808520338652909252922060079091029091019150610512836107fc565b805415610567576000610553826001015461054d64e8d4a510006105478760030154876000015461109590919063ffffffff16565b906110a1565b9061107d565b905080156105655761056533826110ad565b505b600382015481546105829164e8d4a510009161054791611095565b6001820155604051839033907f47cee97cb7acd717b3c0aa1435d004cd5b3c8c57d70dbceb4e4458bbd60e39d490600090a350506001805550565b6002600154036105df5760405162461bcd60e51b81526004016103d59061156b565b6002600155600454821061062e5760405162461bcd60e51b815260206004820152601660248201527577697468647261773a20706f6f6c206578697374733f60501b60448201526064016103d5565b60006004838154811061064357610643611555565b60009182526020808320868452600582526040808520338652909252922060046007909202909201908101546002830154919350610680916115b8565b42116106c15760405162461bcd60e51b815260206004820152601060248201526f1dda5d1a191c985dce881b1bd8dad95960821b60448201526064016103d5565b80548311156107125760405162461bcd60e51b815260206004820152601960248201527f77697468647261773a206e6f7420676f6f6420616d6f756e740000000000000060448201526064016103d5565b61071b846107fc565b6000610749826001015461054d64e8d4a510006105478760030154876000015461109590919063ffffffff16565b9050801561075b5761075b33826110ad565b831561079a578254610777906001600160a01b03163386611153565b8154610783908561107d565b82556006830154610794908561107d565b60068401555b600383015482546107b59164e8d4a510009161054791611095565b6001830155604051848152859033907ff279e6a1f5e320cca91135676d9cb6e44ca8a08c0b88342bcdb1144f6511b5689060200160405180910390a3505060018055505050565b60006004828154811061081157610811611555565b9060005260206000209060070201905080600201544311610830575050565b6006810154600081900361084957504360029091015550565b600061085e8360020154438560050154610ac7565b9050600061088b60075461054786600101546108856006548761109590919063ffffffff16565b90611095565b6002546040516340c10f1960e01b8152306004820152602481018390529192506001600160a01b0316906340c10f1990604401600060405180830381600087803b1580156108d857600080fd5b505af11580156108ec573d6000803e3d6000fd5b5050505061091a61090f8461054764e8d4a510008561109590919063ffffffff16565b600386015490611089565b60038501555050436002909201919091555050565b6002600154036109515760405162461bcd60e51b81526004016103d59061156b565b600260018190555060006004828154811061096e5761096e611555565b600091825260208083208584526005825260408085203386529092529220600460079092029092019081015460028301549193506109ab916115b8565b42116109ec5760405162461bcd60e51b815260206004820152601060248201526f1dda5d1a191c985dce881b1bd8dad95960821b60448201526064016103d5565b80548254610a07916001600160a01b03909116903390611153565b80546006830154610a179161107d565b60068301558054604051908152839033907fbb757047c2b5f3974fe26b7c10f732e7bce710b0952a71082702781e62ae05959060200160405180910390a3600080825560019182015580555050565b60045460005b81811015610a8d57610a7d816107fc565b610a86816115d0565b9050610a6c565b5050565b6000546001600160a01b03163314610abb5760405162461bcd60e51b81526004016103d590611520565b610ac560006111b6565b565b6000610ad782610885858761107d565b90505b9392505050565b6000546001600160a01b03163314610b0b5760405162461bcd60e51b81526004016103d590611520565b6003546001600160a01b03848116911614610b685760405162461bcd60e51b815260206004820152601860248201527f6164643a20746f6b656e20213d207374616b65546f6b656e000000000000000060448201526064016103d5565b610b70610a66565b60006008544311610b8357600854610b85565b435b905084600754610b9591906115b8565b60079081556040805160e0810182526001600160a01b039687168152602081019788529081019283526000606082018181526080830196875260a0830195865260c0830182815260048054600181018255935292517f8a35acfbc15ff81a39ae7d344fd709f28e8600b4aa8c65c6b64bfe7fe36bd19b9290940291820180546001600160a01b031916949098169390931790965595517f8a35acfbc15ff81a39ae7d344fd709f28e8600b4aa8c65c6b64bfe7fe36bd19c86015590517f8a35acfbc15ff81a39ae7d344fd709f28e8600b4aa8c65c6b64bfe7fe36bd19d850155517f8a35acfbc15ff81a39ae7d344fd709f28e8600b4aa8c65c6b64bfe7fe36bd19e84015590517f8a35acfbc15ff81a39ae7d344fd709f28e8600b4aa8c65c6b64bfe7fe36bd19f830155517f8a35acfbc15ff81a39ae7d344fd709f28e8600b4aa8c65c6b64bfe7fe36bd1a082015590517f8a35acfbc15ff81a39ae7d344fd709f28e8600b4aa8c65c6b64bfe7fe36bd1a190910155565b60008060048481548110610d2457610d24611555565b600091825260208083208784526005825260408085206001600160a01b03891686529092529220600360079092029092019081015460068201546002830154929450909143118015610d7557508015155b15610dda576000610d8f8560020154438760050154610ac7565b90506000610db660075461054788600101546108856006548761109590919063ffffffff16565b9050610dd5610dce846105478464e8d4a51000611095565b8590611089565b935050505b610e02836001015461054d64e8d4a5100061054786886000015461109590919063ffffffff16565b979650505050505050565b6000546001600160a01b03163314610e375760405162461bcd60e51b81526004016103d590611520565b600655565b600260015403610e5e5760405162461bcd60e51b81526004016103d59061156b565b60026001556004548210610eac5760405162461bcd60e51b81526020600482015260156024820152746465706f7369743a20706f6f6c206578697374733f60581b60448201526064016103d5565b600060048381548110610ec157610ec1611555565b60009182526020808320868452600582526040808520338652909252922060079091029091019150610ef2846107fc565b805415610f3b576000610f27826001015461054d64e8d4a510006105478760030154876000015461109590919063ffffffff16565b90508015610f3957610f3933826110ad565b505b8215610f81578154610f58906001600160a01b0316333086611206565b8054610f649084611089565b81554260028201556006820154610f7b9084611089565b60068301555b60038201548154610f9c9164e8d4a510009161054791611095565b6001820155604051838152849033907f90890809c654f11d6e72a28fa60149770a0d11ec6c92319d6ceb2bb0a4ea1a159060200160405180910390a35050600180555050565b6000546001600160a01b0316331461100c5760405162461bcd60e51b81526004016103d590611520565b6001600160a01b0381166110715760405162461bcd60e51b815260206004820152602660248201527f4f776e61626c653a206e6577206f776e657220697320746865207a65726f206160448201526564647265737360d01b60648201526084016103d5565b61107a816111b6565b50565b6000610ada82846115e9565b6000610ada82846115b8565b6000610ada8284611600565b6000610ada828461161f565b6002546040516370a0823160e01b81523060048201526000916001600160a01b0316906370a0823190602401602060405180830381865afa1580156110f6573d6000803e3d6000fd5b505050506040513d601f19601f8201168201806040525081019061111a9190611641565b9050808211156111405760025461113b906001600160a01b03168483611153565b505050565b60025461113b906001600160a01b031684845b6040516001600160a01b03831660248201526044810182905261113b90849063a9059cbb60e01b906064015b60408051601f198184030181529190526020810180516001600160e01b03166001600160e01b031990931692909217909152611244565b600080546001600160a01b038381166001600160a01b0319831681178455604051919092169283917f8be0079c531659141344cd1fd0a4f28419497f9722a3daafe3b4186f6b6457e09190a35050565b6040516001600160a01b038085166024830152831660448201526064810182905261123e9085906323b872dd60e01b9060840161117f565b50505050565b6000611299826040518060400160405280602081526020017f5361666545524332303a206c6f772d6c6576656c2063616c6c206661696c6564815250856001600160a01b03166113169092919063ffffffff16565b80519091501561113b57808060200190518101906112b7919061165a565b61113b5760405162461bcd60e51b815260206004820152602a60248201527f5361666545524332303a204552433230206f7065726174696f6e20646964206e6044820152691bdd081cdd58d8d9595960b21b60648201526084016103d5565b6060610ad78484600085856001600160a01b0385163b6113785760405162461bcd60e51b815260206004820152601d60248201527f416464726573733a2063616c6c20746f206e6f6e2d636f6e747261637400000060448201526064016103d5565b600080866001600160a01b0316858760405161139491906116a8565b60006040518083038185875af1925050503d80600081146113d1576040519150601f19603f3d011682016040523d82523d6000602084013e6113d6565b606091505b5091509150610e02828286606083156113f0575081610ada565b8251156114005782518084602001fd5b8160405162461bcd60e51b81526004016103d591906116c4565b60006020828403121561142c57600080fd5b5035919050565b6000806040838503121561144657600080fd5b50508035926020909101359150565b60008060006060848603121561146a57600080fd5b505081359360208301359350604090920135919050565b6001600160a01b038116811461107a57600080fd5b600080600080608085870312156114ac57600080fd5b8435935060208501356114be81611481565b93969395505050506040820135916060013590565b600080604083850312156114e657600080fd5b8235915060208301356114f881611481565b809150509250929050565b60006020828403121561151557600080fd5b8135610ada81611481565b6020808252818101527f4f776e61626c653a2063616c6c6572206973206e6f7420746865206f776e6572604082015260600190565b634e487b7160e01b600052603260045260246000fd5b6020808252601f908201527f5265656e7472616e637947756172643a207265656e7472616e742063616c6c00604082015260600190565b634e487b7160e01b600052601160045260246000fd5b600082198211156115cb576115cb6115a2565b500190565b6000600182016115e2576115e26115a2565b5060010190565b6000828210156115fb576115fb6115a2565b500390565b600081600019048311821515161561161a5761161a6115a2565b500290565b60008261163c57634e487b7160e01b600052601260045260246000fd5b500490565b60006020828403121561165357600080fd5b5051919050565b60006020828403121561166c57600080fd5b81518015158114610ada57600080fd5b60005b8381101561169757818101518382015260200161167f565b8381111561123e5750506000910152565b600082516116ba81846020870161167c565b9190910192915050565b60208152600082518060208401526116e381604085016020870161167c565b601f01601f1916919091016040019291505056fea26469706673582212203f4272fc73393d616e80dad43bb40fd9369f8e27c0c11ac96a683fb221497c8664736f6c634300080e0033",
  "devdoc": {
    "author": "Ibai -Nexxyo Labs",
    "kind": "dev",
    "methods": {
      "add(uint256,address,uint256,uint256)": {
        "params": {
          "allocPoint": "allocation points assigned to this new pool",
          "timeLock": "the time for locking tokens",
          "token": "the stake token added to the pool"
        }
      },
      "claim(uint256)": {
        "params": {
          "pid": "The pool identifier where user deposit tokens"
        }
      },
      "deposit(uint256,uint256)": {
        "params": {
          "amount": "The amount to deposit",
          "pid": "The pool identifier where user deposit tokens"
        }
      },
      "emergencyWithdraw(uint256)": {
        "params": {
          "pid": "The pool identifier where user withdraws"
        }
      },
      "getMultiplier(uint256,uint256,uint256)": {
        "params": {
          "from": "From block",
          "poolMultiplier": "The pool multiplier parameter",
          "to": "To block"
        },
        "returns": {
          "_0": "Multiplier value"
        }
      },
      "owner()": {
        "details": "Returns the address of the current owner."
      },
      "pendingVoteToken(uint256,address)": {
        "params": {
          "pid": "Identifier of the pool in which we consult the pending rewards",
          "user": "User that consult the rewards"
        }
      },
      "poolLength()": {
        "returns": {
          "_0": "poolInfo length"
        }
      },
      "renounceOwnership()": {
        "details": "Leaves the contract without owner. It will not be possible to call `onlyOwner` functions anymore. Can only be called by the current owner. NOTE: Renouncing ownership will leave the contract without an owner, thereby removing any functionality that is only available to the owner."
      },
      "set(uint256,uint256)": {
        "params": {
          "allocPoint": "The new alloc point quantity",
          "pid": "The pool identifier"
        }
      },
      "transferOwnership(address)": {
        "details": "Transfers ownership of the contract to a new account (`newOwner`). Can only be called by the current owner."
      },
      "updatePool(uint256)": {
        "params": {
          "pid": "The pool identifier to update"
        }
      },
      "updateVoteTokenPerBlock(uint256)": {
        "params": {
          "_newVoteTokenPerBlock": "The new token per block amount"
        }
      },
      "withdraw(uint256,uint256)": {
        "params": {
          "amount": "The amount to withdraw",
          "pid": "The pool identifier where user withdraw tokens"
        }
      }
    },
    "title": "Staking contract to earn Voting Power",
    "version": 1
  },
  "userdoc": {
    "kind": "user",
    "methods": {
      "add(uint256,address,uint256,uint256)": {
        "notice": "Add a new pool with different configuration"
      },
      "claim(uint256)": {
        "notice": "Deposit tokens to the contract to receive rewards"
      },
      "deposit(uint256,uint256)": {
        "notice": "Deposit tokens to the contract to receive rewards"
      },
      "emergencyWithdraw(uint256)": {
        "notice": "Withdraw without caring about rewards. EMERGENCY ONLY."
      },
      "getMultiplier(uint256,uint256,uint256)": {
        "notice": "Return reward multiplier over the given _from to _to block"
      },
      "massUpdatePools()": {
        "notice": "Update reward variables for all pools"
      },
      "pendingVoteToken(uint256,address)": {
        "notice": "Function to see pending tokens"
      },
      "poolLength()": {
        "notice": "Gets the length for the pool info array"
      },
      "set(uint256,uint256)": {
        "notice": "Update alloc points for the given pool"
      },
      "updatePool(uint256)": {
        "notice": "Update reward variables"
      },
      "updateVoteTokenPerBlock(uint256)": {
        "notice": "Update token per block"
      },
      "withdraw(uint256,uint256)": {
        "notice": "Withdraw tokens from the contract"
      }
    },
    "notice": "Bet GQ token and earn ORVP token for using governance system",
    "version": 1
  },
  "storageLayout": {
    "storage": [
      {
        "astId": 1610,
        "contract": "contracts/StakingVote.sol:StakingVote",
        "label": "_owner",
        "offset": 0,
        "slot": "0",
        "type": "t_address"
      },
      {
        "astId": 1810,
        "contract": "contracts/StakingVote.sol:StakingVote",
        "label": "_status",
        "offset": 0,
        "slot": "1",
        "type": "t_uint256"
      },
      {
        "astId": 3928,
        "contract": "contracts/StakingVote.sol:StakingVote",
        "label": "voteToken",
        "offset": 0,
        "slot": "2",
        "type": "t_contract(IORVote)5251"
      },
      {
        "astId": 3931,
        "contract": "contracts/StakingVote.sol:StakingVote",
        "label": "stakeToken",
        "offset": 0,
        "slot": "3",
        "type": "t_contract(IERC20)2503"
      },
      {
        "astId": 3935,
        "contract": "contracts/StakingVote.sol:StakingVote",
        "label": "poolInfo",
        "offset": 0,
        "slot": "4",
        "type": "t_array(t_struct(PoolInfo)3925_storage)dyn_storage"
      },
      {
        "astId": 3942,
        "contract": "contracts/StakingVote.sol:StakingVote",
        "label": "userInfo",
        "offset": 0,
        "slot": "5",
        "type": "t_mapping(t_uint256,t_mapping(t_address,t_struct(UserInfo)3909_storage))"
      },
      {
        "astId": 3944,
        "contract": "contracts/StakingVote.sol:StakingVote",
        "label": "voteTokenPerBlock",
        "offset": 0,
        "slot": "6",
        "type": "t_uint256"
      },
      {
        "astId": 3946,
        "contract": "contracts/StakingVote.sol:StakingVote",
        "label": "totalAllocPoint",
        "offset": 0,
        "slot": "7",
        "type": "t_uint256"
      },
      {
        "astId": 3948,
        "contract": "contracts/StakingVote.sol:StakingVote",
        "label": "startBlock",
        "offset": 0,
        "slot": "8",
        "type": "t_uint256"
      }
    ],
    "types": {
      "t_address": {
        "encoding": "inplace",
        "label": "address",
        "numberOfBytes": "20"
      },
      "t_array(t_struct(PoolInfo)3925_storage)dyn_storage": {
        "base": "t_struct(PoolInfo)3925_storage",
        "encoding": "dynamic_array",
        "label": "struct StakingVote.PoolInfo[]",
        "numberOfBytes": "32"
      },
      "t_contract(IERC20)2503": {
        "encoding": "inplace",
        "label": "contract IERC20",
        "numberOfBytes": "20"
      },
      "t_contract(IORVote)5251": {
        "encoding": "inplace",
        "label": "contract IORVote",
        "numberOfBytes": "20"
      },
      "t_mapping(t_address,t_struct(UserInfo)3909_storage)": {
        "encoding": "mapping",
        "key": "t_address",
        "label": "mapping(address => struct StakingVote.UserInfo)",
        "numberOfBytes": "32",
        "value": "t_struct(UserInfo)3909_storage"
      },
      "t_mapping(t_uint256,t_mapping(t_address,t_struct(UserInfo)3909_storage))": {
        "encoding": "mapping",
        "key": "t_uint256",
        "label": "mapping(uint256 => mapping(address => struct StakingVote.UserInfo))",
        "numberOfBytes": "32",
        "value": "t_mapping(t_address,t_struct(UserInfo)3909_storage)"
      },
      "t_struct(PoolInfo)3925_storage": {
        "encoding": "inplace",
        "label": "struct StakingVote.PoolInfo",
        "members": [
          {
            "astId": 3912,
            "contract": "contracts/StakingVote.sol:StakingVote",
            "label": "stakeToken",
            "offset": 0,
            "slot": "0",
            "type": "t_contract(IERC20)2503"
          },
          {
            "astId": 3914,
            "contract": "contracts/StakingVote.sol:StakingVote",
            "label": "allocPoint",
            "offset": 0,
            "slot": "1",
            "type": "t_uint256"
          },
          {
            "astId": 3916,
            "contract": "contracts/StakingVote.sol:StakingVote",
            "label": "lastRewardBlock",
            "offset": 0,
            "slot": "2",
            "type": "t_uint256"
          },
          {
            "astId": 3918,
            "contract": "contracts/StakingVote.sol:StakingVote",
            "label": "accVoteTokenPerShare",
            "offset": 0,
            "slot": "3",
            "type": "t_uint256"
          },
          {
            "astId": 3920,
            "contract": "contracts/StakingVote.sol:StakingVote",
            "label": "timeLock",
            "offset": 0,
            "slot": "4",
            "type": "t_uint256"
          },
          {
            "astId": 3922,
            "contract": "contracts/StakingVote.sol:StakingVote",
            "label": "multiplier",
            "offset": 0,
            "slot": "5",
            "type": "t_uint256"
          },
          {
            "astId": 3924,
            "contract": "contracts/StakingVote.sol:StakingVote",
            "label": "totalStaked",
            "offset": 0,
            "slot": "6",
            "type": "t_uint256"
          }
        ],
        "numberOfBytes": "224"
      },
      "t_struct(UserInfo)3909_storage": {
        "encoding": "inplace",
        "label": "struct StakingVote.UserInfo",
        "members": [
          {
            "astId": 3904,
            "contract": "contracts/StakingVote.sol:StakingVote",
            "label": "amount",
            "offset": 0,
            "slot": "0",
            "type": "t_uint256"
          },
          {
            "astId": 3906,
            "contract": "contracts/StakingVote.sol:StakingVote",
            "label": "rewardDebt",
            "offset": 0,
            "slot": "1",
            "type": "t_uint256"
          },
          {
            "astId": 3908,
            "contract": "contracts/StakingVote.sol:StakingVote",
            "label": "depositTimestamp",
            "offset": 0,
            "slot": "2",
            "type": "t_uint256"
          }
        ],
        "numberOfBytes": "96"
      },
      "t_uint256": {
        "encoding": "inplace",
        "label": "uint256",
        "numberOfBytes": "32"
      }
    }
  }
}