{
  "address": "0xF700D4c708C2be1463E355F337603183D20E0808",
  "abi": [
    {
      "inputs": [
        {
          "internalType": "address",
          "name": "multiSigWalletAddress",
          "type": "address"
        }
      ],
      "stateMutability": "nonpayable",
      "type": "constructor"
    },
    {
      "anonymous": false,
      "inputs": [
        {
          "indexed": true,
          "internalType": "address",
          "name": "owner",
          "type": "address"
        },
        {
          "indexed": true,
          "internalType": "address",
          "name": "spender",
          "type": "address"
        },
        {
          "indexed": false,
          "internalType": "uint256",
          "name": "value",
          "type": "uint256"
        }
      ],
      "name": "Approval",
      "type": "event"
    },
    {
      "anonymous": false,
      "inputs": [
        {
          "indexed": true,
          "internalType": "address",
          "name": "burner",
          "type": "address"
        },
        {
          "indexed": false,
          "internalType": "uint256",
          "name": "burnAmount",
          "type": "uint256"
        }
      ],
      "name": "Burned",
      "type": "event"
    },
    {
      "anonymous": false,
      "inputs": [
        {
          "indexed": true,
          "internalType": "address",
          "name": "delegator",
          "type": "address"
        },
        {
          "indexed": true,
          "internalType": "address",
          "name": "fromDelegate",
          "type": "address"
        },
        {
          "indexed": true,
          "internalType": "address",
          "name": "toDelegate",
          "type": "address"
        }
      ],
      "name": "DelegateChanged",
      "type": "event"
    },
    {
      "anonymous": false,
      "inputs": [
        {
          "indexed": true,
          "internalType": "address",
          "name": "delegate",
          "type": "address"
        },
        {
          "indexed": false,
          "internalType": "uint256",
          "name": "previousBalance",
          "type": "uint256"
        },
        {
          "indexed": false,
          "internalType": "uint256",
          "name": "newBalance",
          "type": "uint256"
        }
      ],
      "name": "DelegateVotesChanged",
      "type": "event"
    },
    {
      "anonymous": false,
      "inputs": [
        {
          "indexed": true,
          "internalType": "address",
          "name": "minter",
          "type": "address"
        },
        {
          "indexed": true,
          "internalType": "address",
          "name": "receiver",
          "type": "address"
        },
        {
          "indexed": false,
          "internalType": "uint256",
          "name": "mintAmount",
          "type": "uint256"
        }
      ],
      "name": "Minted",
      "type": "event"
    },
    {
      "anonymous": false,
      "inputs": [
        {
          "indexed": true,
          "internalType": "bytes32",
          "name": "role",
          "type": "bytes32"
        },
        {
          "indexed": true,
          "internalType": "bytes32",
          "name": "previousAdminRole",
          "type": "bytes32"
        },
        {
          "indexed": true,
          "internalType": "bytes32",
          "name": "newAdminRole",
          "type": "bytes32"
        }
      ],
      "name": "RoleAdminChanged",
      "type": "event"
    },
    {
      "anonymous": false,
      "inputs": [
        {
          "indexed": true,
          "internalType": "bytes32",
          "name": "role",
          "type": "bytes32"
        },
        {
          "indexed": true,
          "internalType": "address",
          "name": "account",
          "type": "address"
        },
        {
          "indexed": true,
          "internalType": "address",
          "name": "sender",
          "type": "address"
        }
      ],
      "name": "RoleGranted",
      "type": "event"
    },
    {
      "anonymous": false,
      "inputs": [
        {
          "indexed": true,
          "internalType": "bytes32",
          "name": "role",
          "type": "bytes32"
        },
        {
          "indexed": true,
          "internalType": "address",
          "name": "account",
          "type": "address"
        },
        {
          "indexed": true,
          "internalType": "address",
          "name": "sender",
          "type": "address"
        }
      ],
      "name": "RoleRevoked",
      "type": "event"
    },
    {
      "anonymous": false,
      "inputs": [
        {
          "indexed": true,
          "internalType": "address",
          "name": "from",
          "type": "address"
        },
        {
          "indexed": true,
          "internalType": "address",
          "name": "to",
          "type": "address"
        },
        {
          "indexed": false,
          "internalType": "uint256",
          "name": "value",
          "type": "uint256"
        }
      ],
      "name": "Transfer",
      "type": "event"
    },
    {
      "anonymous": false,
      "inputs": [
        {
          "indexed": true,
          "internalType": "address",
          "name": "previousWhitelister",
          "type": "address"
        },
        {
          "indexed": true,
          "internalType": "address",
          "name": "newWhitelister",
          "type": "address"
        }
      ],
      "name": "WhitelisterTransferred",
      "type": "event"
    },
    {
      "inputs": [],
      "name": "DEFAULT_ADMIN_ROLE",
      "outputs": [
        {
          "internalType": "bytes32",
          "name": "",
          "type": "bytes32"
        }
      ],
      "stateMutability": "view",
      "type": "function"
    },
    {
      "inputs": [],
      "name": "DELEGATION_TYPEHASH",
      "outputs": [
        {
          "internalType": "bytes32",
          "name": "",
          "type": "bytes32"
        }
      ],
      "stateMutability": "view",
      "type": "function"
    },
    {
      "inputs": [],
      "name": "DOMAIN_TYPEHASH",
      "outputs": [
        {
          "internalType": "bytes32",
          "name": "",
          "type": "bytes32"
        }
      ],
      "stateMutability": "view",
      "type": "function"
    },
    {
      "inputs": [],
      "name": "MINTER_ROLE",
      "outputs": [
        {
          "internalType": "bytes32",
          "name": "",
          "type": "bytes32"
        }
      ],
      "stateMutability": "view",
      "type": "function"
    },
    {
      "inputs": [],
      "name": "_lgePairAddress",
      "outputs": [
        {
          "internalType": "address",
          "name": "",
          "type": "address"
        }
      ],
      "stateMutability": "view",
      "type": "function"
    },
    {
      "inputs": [],
      "name": "_lgeTimestamp",
      "outputs": [
        {
          "internalType": "uint256",
          "name": "",
          "type": "uint256"
        }
      ],
      "stateMutability": "view",
      "type": "function"
    },
    {
      "inputs": [
        {
          "internalType": "uint256",
          "name": "",
          "type": "uint256"
        }
      ],
      "name": "_lgeWhitelistRounds",
      "outputs": [
        {
          "internalType": "uint256",
          "name": "duration",
          "type": "uint256"
        },
        {
          "internalType": "uint256",
          "name": "amountMax",
          "type": "uint256"
        }
      ],
      "stateMutability": "view",
      "type": "function"
    },
    {
      "inputs": [],
      "name": "_whitelister",
      "outputs": [
        {
          "internalType": "address",
          "name": "",
          "type": "address"
        }
      ],
      "stateMutability": "view",
      "type": "function"
    },
    {
      "inputs": [
        {
          "internalType": "address",
          "name": "owner",
          "type": "address"
        },
        {
          "internalType": "address",
          "name": "spender",
          "type": "address"
        }
      ],
      "name": "allowance",
      "outputs": [
        {
          "internalType": "uint256",
          "name": "",
          "type": "uint256"
        }
      ],
      "stateMutability": "view",
      "type": "function"
    },
    {
      "inputs": [
        {
          "internalType": "address",
          "name": "spender",
          "type": "address"
        },
        {
          "internalType": "uint256",
          "name": "amount",
          "type": "uint256"
        }
      ],
      "name": "approve",
      "outputs": [
        {
          "internalType": "bool",
          "name": "",
          "type": "bool"
        }
      ],
      "stateMutability": "nonpayable",
      "type": "function"
    },
    {
      "inputs": [
        {
          "internalType": "address",
          "name": "account",
          "type": "address"
        }
      ],
      "name": "balanceOf",
      "outputs": [
        {
          "internalType": "uint256",
          "name": "",
          "type": "uint256"
        }
      ],
      "stateMutability": "view",
      "type": "function"
    },
    {
      "inputs": [
        {
          "internalType": "uint256",
          "name": "amount",
          "type": "uint256"
        }
      ],
      "name": "burn",
      "outputs": [],
      "stateMutability": "nonpayable",
      "type": "function"
    },
    {
      "inputs": [],
      "name": "cap",
      "outputs": [
        {
          "internalType": "uint256",
          "name": "",
          "type": "uint256"
        }
      ],
      "stateMutability": "view",
      "type": "function"
    },
    {
      "inputs": [
        {
          "internalType": "address",
          "name": "",
          "type": "address"
        },
        {
          "internalType": "uint32",
          "name": "",
          "type": "uint32"
        }
      ],
      "name": "checkpoints",
      "outputs": [
        {
          "internalType": "uint256",
          "name": "fromBlock",
          "type": "uint256"
        },
        {
          "internalType": "uint256",
          "name": "votes",
          "type": "uint256"
        }
      ],
      "stateMutability": "view",
      "type": "function"
    },
    {
      "inputs": [
        {
          "internalType": "address",
          "name": "pairAddress",
          "type": "address"
        },
        {
          "internalType": "uint256[]",
          "name": "durations",
          "type": "uint256[]"
        },
        {
          "internalType": "uint256[]",
          "name": "amountsMax",
          "type": "uint256[]"
        }
      ],
      "name": "createLGEWhitelist",
      "outputs": [],
      "stateMutability": "nonpayable",
      "type": "function"
    },
    {
      "inputs": [],
      "name": "decimals",
      "outputs": [
        {
          "internalType": "uint8",
          "name": "",
          "type": "uint8"
        }
      ],
      "stateMutability": "view",
      "type": "function"
    },
    {
      "inputs": [
        {
          "internalType": "address",
          "name": "spender",
          "type": "address"
        },
        {
          "internalType": "uint256",
          "name": "subtractedValue",
          "type": "uint256"
        }
      ],
      "name": "decreaseAllowance",
      "outputs": [
        {
          "internalType": "bool",
          "name": "",
          "type": "bool"
        }
      ],
      "stateMutability": "nonpayable",
      "type": "function"
    },
    {
      "inputs": [
        {
          "internalType": "address",
          "name": "delegatee",
          "type": "address"
        }
      ],
      "name": "delegate",
      "outputs": [],
      "stateMutability": "nonpayable",
      "type": "function"
    },
    {
      "inputs": [
        {
          "internalType": "address",
          "name": "delegatee",
          "type": "address"
        },
        {
          "internalType": "uint256",
          "name": "nonce",
          "type": "uint256"
        },
        {
          "internalType": "uint256",
          "name": "expiry",
          "type": "uint256"
        },
        {
          "internalType": "uint8",
          "name": "v",
          "type": "uint8"
        },
        {
          "internalType": "bytes32",
          "name": "r",
          "type": "bytes32"
        },
        {
          "internalType": "bytes32",
          "name": "s",
          "type": "bytes32"
        }
      ],
      "name": "delegateBySig",
      "outputs": [],
      "stateMutability": "nonpayable",
      "type": "function"
    },
    {
      "inputs": [
        {
          "internalType": "address",
          "name": "delegator",
          "type": "address"
        }
      ],
      "name": "delegates",
      "outputs": [
        {
          "internalType": "address",
          "name": "",
          "type": "address"
        }
      ],
      "stateMutability": "view",
      "type": "function"
    },
    {
      "inputs": [
        {
          "internalType": "address",
          "name": "account",
          "type": "address"
        }
      ],
      "name": "getCurrentVotes",
      "outputs": [
        {
          "internalType": "uint256",
          "name": "",
          "type": "uint256"
        }
      ],
      "stateMutability": "view",
      "type": "function"
    },
    {
      "inputs": [],
      "name": "getLGEWhitelistRound",
      "outputs": [
        {
          "internalType": "uint256",
          "name": "",
          "type": "uint256"
        },
        {
          "internalType": "uint256",
          "name": "",
          "type": "uint256"
        },
        {
          "internalType": "uint256",
          "name": "",
          "type": "uint256"
        },
        {
          "internalType": "uint256",
          "name": "",
          "type": "uint256"
        },
        {
          "internalType": "uint256",
          "name": "",
          "type": "uint256"
        }
      ],
      "stateMutability": "view",
      "type": "function"
    },
    {
      "inputs": [
        {
          "internalType": "address",
          "name": "account",
          "type": "address"
        },
        {
          "internalType": "uint256",
          "name": "blockNumber",
          "type": "uint256"
        }
      ],
      "name": "getPriorVotes",
      "outputs": [
        {
          "internalType": "uint256",
          "name": "",
          "type": "uint256"
        }
      ],
      "stateMutability": "view",
      "type": "function"
    },
    {
      "inputs": [
        {
          "internalType": "bytes32",
          "name": "role",
          "type": "bytes32"
        }
      ],
      "name": "getRoleAdmin",
      "outputs": [
        {
          "internalType": "bytes32",
          "name": "",
          "type": "bytes32"
        }
      ],
      "stateMutability": "view",
      "type": "function"
    },
    {
      "inputs": [
        {
          "internalType": "bytes32",
          "name": "role",
          "type": "bytes32"
        },
        {
          "internalType": "address",
          "name": "account",
          "type": "address"
        }
      ],
      "name": "grantRole",
      "outputs": [],
      "stateMutability": "nonpayable",
      "type": "function"
    },
    {
      "inputs": [
        {
          "internalType": "bytes32",
          "name": "role",
          "type": "bytes32"
        },
        {
          "internalType": "address",
          "name": "account",
          "type": "address"
        }
      ],
      "name": "hasRole",
      "outputs": [
        {
          "internalType": "bool",
          "name": "",
          "type": "bool"
        }
      ],
      "stateMutability": "view",
      "type": "function"
    },
    {
      "inputs": [
        {
          "internalType": "address",
          "name": "spender",
          "type": "address"
        },
        {
          "internalType": "uint256",
          "name": "addedValue",
          "type": "uint256"
        }
      ],
      "name": "increaseAllowance",
      "outputs": [
        {
          "internalType": "bool",
          "name": "",
          "type": "bool"
        }
      ],
      "stateMutability": "nonpayable",
      "type": "function"
    },
    {
      "inputs": [
        {
          "internalType": "address",
          "name": "to",
          "type": "address"
        },
        {
          "internalType": "uint256",
          "name": "amount",
          "type": "uint256"
        }
      ],
      "name": "mint",
      "outputs": [],
      "stateMutability": "nonpayable",
      "type": "function"
    },
    {
      "inputs": [
        {
          "internalType": "uint256",
          "name": "index",
          "type": "uint256"
        },
        {
          "internalType": "uint256",
          "name": "duration",
          "type": "uint256"
        },
        {
          "internalType": "uint256",
          "name": "amountMax",
          "type": "uint256"
        }
      ],
      "name": "modifyLGEWhitelist",
      "outputs": [],
      "stateMutability": "nonpayable",
      "type": "function"
    },
    {
      "inputs": [],
      "name": "name",
      "outputs": [
        {
          "internalType": "string",
          "name": "",
          "type": "string"
        }
      ],
      "stateMutability": "view",
      "type": "function"
    },
    {
      "inputs": [
        {
          "internalType": "address",
          "name": "",
          "type": "address"
        }
      ],
      "name": "nonces",
      "outputs": [
        {
          "internalType": "uint256",
          "name": "",
          "type": "uint256"
        }
      ],
      "stateMutability": "view",
      "type": "function"
    },
    {
      "inputs": [
        {
          "internalType": "address",
          "name": "",
          "type": "address"
        }
      ],
      "name": "numCheckpoints",
      "outputs": [
        {
          "internalType": "uint32",
          "name": "",
          "type": "uint32"
        }
      ],
      "stateMutability": "view",
      "type": "function"
    },
    {
      "inputs": [
        {
          "internalType": "bytes32",
          "name": "role",
          "type": "bytes32"
        },
        {
          "internalType": "address",
          "name": "account",
          "type": "address"
        }
      ],
      "name": "renounceRole",
      "outputs": [],
      "stateMutability": "nonpayable",
      "type": "function"
    },
    {
      "inputs": [],
      "name": "renounceWhitelister",
      "outputs": [],
      "stateMutability": "nonpayable",
      "type": "function"
    },
    {
      "inputs": [
        {
          "internalType": "bytes32",
          "name": "role",
          "type": "bytes32"
        },
        {
          "internalType": "address",
          "name": "account",
          "type": "address"
        }
      ],
      "name": "revokeRole",
      "outputs": [],
      "stateMutability": "nonpayable",
      "type": "function"
    },
    {
      "inputs": [
        {
          "internalType": "bytes4",
          "name": "interfaceId",
          "type": "bytes4"
        }
      ],
      "name": "supportsInterface",
      "outputs": [
        {
          "internalType": "bool",
          "name": "",
          "type": "bool"
        }
      ],
      "stateMutability": "view",
      "type": "function"
    },
    {
      "inputs": [],
      "name": "symbol",
      "outputs": [
        {
          "internalType": "string",
          "name": "",
          "type": "string"
        }
      ],
      "stateMutability": "view",
      "type": "function"
    },
    {
      "inputs": [],
      "name": "totalSupply",
      "outputs": [
        {
          "internalType": "uint256",
          "name": "",
          "type": "uint256"
        }
      ],
      "stateMutability": "view",
      "type": "function"
    },
    {
      "inputs": [
        {
          "internalType": "address",
          "name": "recipient",
          "type": "address"
        },
        {
          "internalType": "uint256",
          "name": "amount",
          "type": "uint256"
        }
      ],
      "name": "transfer",
      "outputs": [
        {
          "internalType": "bool",
          "name": "",
          "type": "bool"
        }
      ],
      "stateMutability": "nonpayable",
      "type": "function"
    },
    {
      "inputs": [
        {
          "internalType": "address",
          "name": "sender",
          "type": "address"
        },
        {
          "internalType": "address",
          "name": "recipient",
          "type": "address"
        },
        {
          "internalType": "uint256",
          "name": "amount",
          "type": "uint256"
        }
      ],
      "name": "transferFrom",
      "outputs": [
        {
          "internalType": "bool",
          "name": "",
          "type": "bool"
        }
      ],
      "stateMutability": "nonpayable",
      "type": "function"
    },
    {
      "inputs": [
        {
          "internalType": "address",
          "name": "newWhitelister",
          "type": "address"
        }
      ],
      "name": "transferWhitelister",
      "outputs": [],
      "stateMutability": "nonpayable",
      "type": "function"
    }
  ],
  "transactionHash": "0xbc0e2dabb9084e3ef977386835c6a88c6d0ba1c3624318af5d4c56472b2f2871",
  "args": [
    "0x29e05FADE91a33A413e39D980D86F253123C5fa7"
  ],
  "numDeployments": 1,
  "solcInputHash": "243c636cc890f94f29a1321eefcc93f0",
  "bytecode": "0x60a06040523480156200001157600080fd5b5060405162002f7938038062002f798339810160408190526200003491620003ca565b6040518060400160405280601181526020017011d85b1858dd1a58c8145d58591c985b9d607a1b81525060405180604001604052806002815260200161475160f01b815250620000896200018060201b60201c565b600380546001600160a01b0319166001600160a01b03929092169190911790558151620000be90600990602085019062000324565b508051620000d490600890602084019062000324565b50506007805460ff1916601217905550620000f160008262000184565b6200011d7f9f2df0fed2c77648de5860a4cc508cd0818c85b8b8a1ab4ceeef8d981c8956a68262000184565b60075460ff166200013090600a6200045e565b62000141906402540be4006200051d565b60805262000179336200015660075460ff1690565b6200016390600a6200045e565b6200017390633b9aca006200051d565b6200020f565b5062000592565b3390565b620001908282620002f7565b6200020b576000828152600a602090815260408083206001600160a01b03851684529091529020805460ff19166001179055620001ca3390565b6001600160a01b0316816001600160a01b0316837f2f8788117e7eff1d82e926ec794901d17c78024a50270940304540a733656f0d60405160405180910390a45b5050565b6001600160a01b0382166200026a5760405162461bcd60e51b815260206004820152601f60248201527f42455032303a206d696e7420746f20746865207a65726f206164647265737300604482015260640160405180910390fd5b80600660008282546200027e9190620003fa565b90915550506001600160a01b03821660009081526004602052604081208054839290620002ad908490620003fa565b90915550506040518181526001600160a01b038316906000907fddf252ad1be2c89b69c2b068fc378daa952ba7f163c4a11628f55a4df523b3ef9060200160405180910390a35050565b6000828152600a602090815260408083206001600160a01b038516845290915290205460ff165b92915050565b82805462000332906200053f565b90600052602060002090601f016020900481019282620003565760008555620003a1565b82601f106200037157805160ff1916838001178555620003a1565b82800160010185558215620003a1579182015b82811115620003a157825182559160200191906001019062000384565b50620003af929150620003b3565b5090565b5b80821115620003af5760008155600101620003b4565b600060208284031215620003dc578081fd5b81516001600160a01b0381168114620003f3578182fd5b9392505050565b600082198211156200041057620004106200057c565b500190565b600181815b80851115620004565781600019048211156200043a576200043a6200057c565b808516156200044857918102915b93841c93908002906200041a565b509250929050565b6000620003f360ff8416836000826200047a575060016200031e565b8162000489575060006200031e565b8160018114620004a25760028114620004ad57620004cd565b60019150506200031e565b60ff841115620004c157620004c16200057c565b50506001821b6200031e565b5060208310610133831016604e8410600b8410161715620004f2575081810a6200031e565b620004fe838362000415565b80600019048211156200051557620005156200057c565b029392505050565b60008160001904831182151516156200053a576200053a6200057c565b500290565b600181811c908216806200055457607f821691505b602082108114156200057657634e487b7160e01b600052602260045260246000fd5b50919050565b634e487b7160e01b600052601160045260246000fd5b6080516129c4620005b56000396000818161038601526109f101526129c46000f3fe608060405234801561001057600080fd5b50600436106102535760003560e01c80636fcfff4511610146578063a77cac7a116100c3578063d539139311610087578063d5391393146105cf578063d547741f146105f6578063da91b76e14610609578063dd62ed3e14610612578063e7a324dc1461064b578063f1127ed81461067257600080fd5b8063a77cac7a1461055b578063a9059cbb14610583578063b4b5ea5714610596578063c3cda520146105a9578063d5215d11146105bc57600080fd5b806391d148541161010a57806391d148541461051d57806395d89b41146105305780639ad3a7ba14610538578063a217fddf14610540578063a457c2d71461054857600080fd5b80636fcfff451461047357806370a08231146104ae578063782d6fe1146104d75780637ecebe00146104ea5780638d876ecd1461050a57600080fd5b8063313ce567116101d457806342966c681161019857806342966c68146103e357806349448898146103f6578063532f1fed14610421578063587cde1e146104345780635c19a95c1461046057600080fd5b8063313ce5671461036f578063355274ea1461038457806336568abe146103aa57806339509351146103bd57806340c10f19146103d057600080fd5b806320606b701161021b57806320606b70146102ea57806323b872dd14610311578063248a9ca3146103245780632e15e5c7146103475780632f2ff15d1461035c57600080fd5b806301ffc9a71461025857806306fdde0314610280578063095ea7b31461029557806318160ddd146102a85780631b29b0cd146102ba575b600080fd5b61026b610266366004612670565b6106a4565b60405190151581526020015b60405180910390f35b6102886106db565b6040516102779190612738565b61026b6102a3366004612571565b61076d565b6006545b604051908152602001610277565b6102c2610783565b604080519586526020860194909452928401919091526060830152608082015260a001610277565b6102ac7f8cad95687ba82c2ce50e74f7b754645e5117c3a5bec8151c0726d5857980a86681565b61026b61031f3660046124b8565b610857565b6102ac610332366004612636565b6000908152600a602052604090206001015490565b61035a61035536600461246c565b6108a1565b005b61035a61036a36600461264e565b6108e0565b60075460405160ff9091168152602001610277565b7f00000000000000000000000000000000000000000000000000000000000000006102ac565b61035a6103b836600461264e565b61090b565b61026b6103cb366004612571565b610989565b61035a6103de366004612571565b6109c4565b61035a6103f1366004612636565b610ac2565b600254610409906001600160a01b031681565b6040516001600160a01b039091168152602001610277565b61035a61042f3660046124f3565b610b2a565b61040961044236600461246c565b6001600160a01b039081166000908152600b60205260409020541690565b61035a61046e36600461246c565b610c7a565b61049961048136600461246c565b600d6020526000908152604090205463ffffffff1681565b60405163ffffffff9091168152602001610277565b6102ac6104bc36600461246c565b6001600160a01b031660009081526004602052604090205490565b6102ac6104e5366004612571565b610c84565b6102ac6104f836600461246c565b600e6020526000908152604090205481565b61035a610518366004612698565b610ed4565b61026b61052b36600461264e565b611065565b610288611090565b61035a61109f565b6102ac600081565b61026b610556366004612571565b611113565b61056e610569366004612636565b611162565b60408051928352602083019190915201610277565b61026b610591366004612571565b611190565b6102ac6105a436600461246c565b6111ce565b61035a6105b736600461259a565b611243565b600354610409906001600160a01b031681565b6102ac7f9f2df0fed2c77648de5860a4cc508cd0818c85b8b8a1ab4ceeef8d981c8956a681565b61035a61060436600461264e565b6114ff565b6102ac60015481565b6102ac610620366004612486565b6001600160a01b03918216600090815260056020908152604080832093909416825291909152205490565b6102ac7fe48329057bfd03d55e49b547132e39cffd9c1820ad7b9d4c5307691425d15adf81565b61056e6106803660046125f8565b600c6020908152600092835260408084209091529082529020805460019091015482565b60006001600160e01b03198216637965db0b60e01b14806106d557506301ffc9a760e01b6001600160e01b03198316145b92915050565b6060600980546106ea906128af565b80601f0160208091040260200160405190810160405280929190818152602001828054610716906128af565b80156107635780601f1061073857610100808354040283529160200191610763565b820191906000526020600020905b81548152906001019060200180831161074657829003601f168201915b5050505050905090565b600061077a338484611525565b50600192915050565b60008060008060008060015411156108405760015460005b60005481101561083d5760008082815481106107c757634e487b7160e01b600052603260045260246000fd5b906000526020600020906004020190508060000154836107e791906127a2565b925082421161082a576107fb8260016127a2565b815460018301543360009081526003909401602052604090932054919950975092955093509091506108509050565b5080610835816128ea565b91505061079b565b50505b5060009350839250829150819050805b9091929394565b6000610864848484611641565b506001600160a01b038085166000908152600b60205260408082205486841683529120546108979291821691168461169b565b5060019392505050565b6003546001600160a01b031633146108d45760405162461bcd60e51b81526004016108cb9061276b565b60405180910390fd5b6108dd816117fa565b50565b6000828152600a60205260409020600101546108fc81336118b8565b610906838361191c565b505050565b6001600160a01b038116331461097b5760405162461bcd60e51b815260206004820152602f60248201527f416363657373436f6e74726f6c3a2063616e206f6e6c792072656e6f756e636560448201526e103937b632b9903337b91039b2b63360891b60648201526084016108cb565b61098582826119a2565b5050565b3360008181526005602090815260408083206001600160a01b0387168452909152812054909161077a9185906109bf9086611a09565b611525565b7f9f2df0fed2c77648de5860a4cc508cd0818c85b8b8a1ab4ceeef8d981c8956a66109ef81336118b8565b7f000000000000000000000000000000000000000000000000000000000000000082610a1a60065490565b610a2491906127a2565b1115610a725760405162461bcd60e51b815260206004820152601960248201527f42455032304361707065643a204361702065786365656465640000000000000060448201526064016108cb565b610a7c8383611a15565b6040518281526001600160a01b0384169033907f9d228d69b5fdb8d273a2336f8fb8612d039631024ea9bf09c424a9503aa078f0906020015b60405180910390a3505050565b610acc3382611af4565b336000908152600b6020526040812054610af2916001600160a01b03909116908361169b565b60405181815233907f696de425f79f4a40bc6d2122ca50507f0efbeabbff86a84871b7196ab8ea8df79060200160405180910390a250565b6003546001600160a01b03163314610b545760405162461bcd60e51b81526004016108cb9061276b565b828114610b9a5760405162461bcd60e51b8152602060048201526014602482015273496e76616c69642077686974656c69737428732960601b60448201526064016108cb565b600280546001600160a01b0319166001600160a01b0387161790558215610c7357610bc66000806123cb565b60005b83811015610c7157600080546001810182559080526004027f290decd9548b62a8d60345a988386fc84ba6bc95484008f6362f93160ef3e56301858583818110610c2357634e487b7160e01b600052603260045260246000fd5b6020029190910135825550838383818110610c4e57634e487b7160e01b600052603260045260246000fd5b905060200201358160010181905550508080610c69906128ea565b915050610bc9565b505b5050505050565b6108dd3382611c42565b6000438210610ce35760405162461bcd60e51b815260206004820152602560248201527f47513a3a6765745072696f72566f7465733a206e6f74207965742064657465726044820152641b5a5b995960da1b60648201526084016108cb565b6001600160a01b0383166000908152600d602052604090205463ffffffff1680610d115760009150506106d5565b6001600160a01b0384166000908152600c602052604081208491610d36600185612847565b63ffffffff16815260208101919091526040016000205411610d9c576001600160a01b0384166000908152600c6020526040812090610d76600184612847565b63ffffffff1663ffffffff168152602001908152602001600020600101549150506106d5565b6001600160a01b0384166000908152600c60209081526040808320838052909152902054831015610dd15760009150506106d5565b600080610ddf600184612847565b90505b8163ffffffff168163ffffffff161115610e9d5760006002610e048484612847565b610e0e91906127e2565b610e189083612847565b6001600160a01b0388166000908152600c6020908152604080832063ffffffff85168452825291829020825180840190935280548084526001909101549183019190915291925090871415610e77576020015194506106d59350505050565b8051871115610e8857819350610e96565b610e93600183612847565b92505b5050610de2565b506001600160a01b0385166000908152600c6020908152604080832063ffffffff9094168352929052206001015491505092915050565b6003546001600160a01b03163314610efe5760405162461bcd60e51b81526004016108cb9061276b565b6000548310610f3f5760405162461bcd60e51b815260206004820152600d60248201526c092dcecc2d8d2c840d2dcc8caf609b1b60448201526064016108cb565b60008111610f835760405162461bcd60e51b8152602060048201526011602482015270092dcecc2d8d2c840c2dadeeadce89ac2f607b1b60448201526064016108cb565b60008381548110610fa457634e487b7160e01b600052603260045260246000fd5b9060005260206000209060040201600001548214610ff0578160008481548110610fde57634e487b7160e01b600052603260045260246000fd5b60009182526020909120600490910201555b6000838154811061101157634e487b7160e01b600052603260045260246000fd5b906000526020600020906004020160010154811461090657806000848154811061104b57634e487b7160e01b600052603260045260246000fd5b906000526020600020906004020160010181905550505050565b6000918252600a602090815260408084206001600160a01b0393909316845291905290205460ff1690565b6060600880546106ea906128af565b6003546001600160a01b031633146110c95760405162461bcd60e51b81526004016108cb9061276b565b6003546040516000916001600160a01b0316907f4e78506f3260e366dc9440ee0b4eca2d03aa91536b7605deb90e873d3fc4e5b4908390a3600380546001600160a01b0319169055565b600061077a33846109bf8560405180606001604052806025815260200161296a602591393360009081526005602090815260408083206001600160a01b038d1684529091529020549190611cc2565b6000818154811061117257600080fd5b60009182526020909120600490910201805460019091015490915082565b600061119c8383611cee565b50336000908152600b6020526040808220546001600160a01b038681168452919092205461077a92821691168461169b565b6001600160a01b0381166000908152600d602052604081205463ffffffff16806111f957600061123c565b6001600160a01b0383166000908152600c602052604081209061121d600184612847565b63ffffffff1663ffffffff168152602001908152602001600020600101545b9392505050565b60007f8cad95687ba82c2ce50e74f7b754645e5117c3a5bec8151c0726d5857980a86661126e6106db565b8051906020012061127c4690565b60408051602080820195909552808201939093526060830191909152306080808401919091528151808403909101815260a0830182528051908401207fe48329057bfd03d55e49b547132e39cffd9c1820ad7b9d4c5307691425d15adf60c08401526001600160a01b038b1660e084015261010083018a90526101208084018a90528251808503909101815261014084019092528151919093012061190160f01b610160830152610162820183905261018282018190529192506000906101a20160408051601f198184030181528282528051602091820120600080855291840180845281905260ff8a169284019290925260608301889052608083018790529092509060019060a0016020604051602081039080840390855afa1580156113a8573d6000803e3d6000fd5b5050604051601f1901519150506001600160a01b0381166114175760405162461bcd60e51b8152602060048201526024808201527f47513a3a64656c656761746542795369673a20696e76616c6964207369676e616044820152637475726560e01b60648201526084016108cb565b6001600160a01b0381166000908152600e6020526040812080549161143b836128ea565b91905055891461148d5760405162461bcd60e51b815260206004820181905260248201527f47513a3a64656c656761746542795369673a20696e76616c6964206e6f6e636560448201526064016108cb565b874211156114e95760405162461bcd60e51b8152602060048201526024808201527f47513a3a64656c656761746542795369673a207369676e6174757265206578706044820152631a5c995960e21b60648201526084016108cb565b6114f3818b611c42565b50505050505050505050565b6000828152600a602052604090206001015461151b81336118b8565b61090683836119a2565b6001600160a01b0383166115875760405162461bcd60e51b8152602060048201526024808201527f42455032303a20617070726f76652066726f6d20746865207a65726f206164646044820152637265737360e01b60648201526084016108cb565b6001600160a01b0382166115e85760405162461bcd60e51b815260206004820152602260248201527f42455032303a20617070726f766520746f20746865207a65726f206164647265604482015261737360f01b60648201526084016108cb565b6001600160a01b0383811660008181526005602090815260408083209487168084529482529182902085905590518481527f8c5be1e5ebec7d5bd14f71427d1e84f3dd0314c0f7b2291e5b200ac8c7c3b9259101610ab5565b600061164e848484611cf7565b61089784336109bf8560405180606001604052806028815260200161291c602891396001600160a01b038a1660009081526005602090815260408083203384529091529020549190611cc2565b816001600160a01b0316836001600160a01b0316141580156116bd5750600081115b15610906576001600160a01b03831615611760576001600160a01b0383166000908152600d602052604081205463ffffffff1690816116fd576000611740565b6001600160a01b0385166000908152600c6020526040812090611721600185612847565b63ffffffff1663ffffffff168152602001908152602001600020600101545b9050600061174e8285611e88565b905061175c86848484611e94565b5050505b6001600160a01b03821615610906576001600160a01b0382166000908152600d602052604081205463ffffffff16908161179b5760006117de565b6001600160a01b0384166000908152600c60205260408120906117bf600185612847565b63ffffffff1663ffffffff168152602001908152602001600020600101545b905060006117ec8285611a09565b9050610c7185848484611e94565b6001600160a01b03811661185c5760405162461bcd60e51b815260206004820152602360248201527f4e65772077686974656c697374657220697320746865207a65726f206164647260448201526265737360e81b60648201526084016108cb565b6003546040516001600160a01b038084169216907f4e78506f3260e366dc9440ee0b4eca2d03aa91536b7605deb90e873d3fc4e5b490600090a3600380546001600160a01b0319166001600160a01b0392909216919091179055565b6118c28282611065565b610985576118da816001600160a01b03166014611ff8565b6118e5836020611ff8565b6040516020016118f69291906126c3565b60408051601f198184030181529082905262461bcd60e51b82526108cb91600401612738565b6119268282611065565b610985576000828152600a602090815260408083206001600160a01b03851684529091529020805460ff1916600117905561195e3390565b6001600160a01b0316816001600160a01b0316837f2f8788117e7eff1d82e926ec794901d17c78024a50270940304540a733656f0d60405160405180910390a45050565b6119ac8282611065565b15610985576000828152600a602090815260408083206001600160a01b0385168085529252808320805460ff1916905551339285917ff6391f5c32d9c69d2a47ea670b442974b53935d1edc7fd64eb21e047a839171b9190a45050565b600061123c82846127a2565b6001600160a01b038216611a6b5760405162461bcd60e51b815260206004820152601f60248201527f42455032303a206d696e7420746f20746865207a65726f20616464726573730060448201526064016108cb565b8060066000828254611a7d91906127a2565b90915550506001600160a01b03821660009081526004602052604081208054839290611aaa9084906127a2565b90915550506040518181526001600160a01b038316906000907fddf252ad1be2c89b69c2b068fc378daa952ba7f163c4a11628f55a4df523b3ef9060200160405180910390a35050565b6001600160a01b038216611b545760405162461bcd60e51b815260206004820152602160248201527f42455032303a206275726e2066726f6d20746865207a65726f206164647265736044820152607360f81b60648201526084016108cb565b6001600160a01b03821660009081526004602052604090205481811015611bc85760405162461bcd60e51b815260206004820152602260248201527f42455032303a206275726e20616d6f756e7420657863656564732062616c616e604482015261636560f01b60648201526084016108cb565b6001600160a01b0383166000908152600460205260408120838303905560068054849290611bf7908490612830565b90915550506040518281526000906001600160a01b038516907fddf252ad1be2c89b69c2b068fc378daa952ba7f163c4a11628f55a4df523b3ef9060200160405180910390a3505050565b6001600160a01b038281166000818152600b6020818152604080842080546004845282862054949093528787166001600160a01b03198416811790915590519190951694919391928592917f3134e8a2e6d97e929a7e54011ea5485d7d196dd5f0ba4d4ef95803e8e3fc257f9190a4611cbc82848361169b565b50505050565b60008184841115611ce65760405162461bcd60e51b81526004016108cb9190612738565b505050900390565b600061077a3384845b6001600160a01b038316611d5b5760405162461bcd60e51b815260206004820152602560248201527f42455032303a207472616e736665722066726f6d20746865207a65726f206164604482015264647265737360d81b60648201526084016108cb565b6001600160a01b038216611dbd5760405162461bcd60e51b815260206004820152602360248201527f42455032303a207472616e7366657220746f20746865207a65726f206164647260448201526265737360e81b60648201526084016108cb565b611dc88383836121da565b611e0581604051806060016040528060268152602001612944602691396001600160a01b0386166000908152600460205260409020549190611cc2565b6001600160a01b038085166000908152600460205260408082209390935590841681522054611e349082611a09565b6001600160a01b0380841660008181526004602052604090819020939093559151908516907fddf252ad1be2c89b69c2b068fc378daa952ba7f163c4a11628f55a4df523b3ef90610ab59085815260200190565b600061123c8284612830565b4363ffffffff841615801590611ee357506001600160a01b0385166000908152600c602052604081208291611eca600188612847565b63ffffffff168152602081019190915260400160002054145b15611f2c576001600160a01b0385166000908152600c602052604081208391611f0d600188612847565b63ffffffff168152602081019190915260400160002060010155611fad565b60408051808201825282815260208082018581526001600160a01b0389166000908152600c835284812063ffffffff8a168252909252929020905181559051600191820155611f7c9085906127ba565b6001600160a01b0386166000908152600d60205260409020805463ffffffff191663ffffffff929092169190911790555b60408051848152602081018490526001600160a01b038716917fdec2bacdd2f05b59de34da9b523dff8be42e5e38e818c82fdb0bae774387a724910160405180910390a25050505050565b60606000612007836002612811565b6120129060026127a2565b67ffffffffffffffff81111561203857634e487b7160e01b600052604160045260246000fd5b6040519080825280601f01601f191660200182016040528015612062576020820181803683370190505b509050600360fc1b8160008151811061208b57634e487b7160e01b600052603260045260246000fd5b60200101906001600160f81b031916908160001a905350600f60fb1b816001815181106120c857634e487b7160e01b600052603260045260246000fd5b60200101906001600160f81b031916908160001a90535060006120ec846002612811565b6120f79060016127a2565b90505b600181111561218b576f181899199a1a9b1b9c1cb0b131b232b360811b85600f166010811061213957634e487b7160e01b600052603260045260246000fd5b1a60f81b82828151811061215d57634e487b7160e01b600052603260045260246000fd5b60200101906001600160f81b031916908160001a90535060049490941c9361218481612898565b90506120fa565b50831561123c5760405162461bcd60e51b815260206004820181905260248201527f537472696e67733a20686578206c656e67746820696e73756666696369656e7460448201526064016108cb565b6002546001600160a01b031615806121f25750600054155b156121fc57505050565b60015415801561221a57506002546001600160a01b03848116911614155b801561223357506002546001600160a01b038381169116145b801561223f5750600081115b1561224957426001555b6002546001600160a01b03848116911614801561227457506002546001600160a01b03838116911614155b15610906576000612283610783565b5050505090506000811115611cbc576000806122a0600184612830565b815481106122be57634e487b7160e01b600052603260045260246000fd5b600091825260208083206001600490930201918201546001600160a01b03881684526003830190915260408320549193501115612322576001600160a01b0385166000908152600383016020526040902054600183015461231f9190612830565b90505b8084111561237e5760405162461bcd60e51b815260206004820152602360248201527f4c4745202d20416d6f756e742065786365656473206d6178696d756d20616d6f6044820152621d5b9d60ea1b60648201526084016108cb565b6001600160a01b03851660009081526003830160205260409020546123a49085906127a2565b6001600160a01b038616600090815260039093016020526040909220919091555050505050565b50805460008255600402906000526020600020908101906108dd91905b8082111561240257600080825560018201556004016123e8565b5090565b80356001600160a01b038116811461241d57600080fd5b919050565b60008083601f840112612433578182fd5b50813567ffffffffffffffff81111561244a578182fd5b6020830191508360208260051b850101111561246557600080fd5b9250929050565b60006020828403121561247d578081fd5b61123c82612406565b60008060408385031215612498578081fd5b6124a183612406565b91506124af60208401612406565b90509250929050565b6000806000606084860312156124cc578081fd5b6124d584612406565b92506124e360208501612406565b9150604084013590509250925092565b60008060008060006060868803121561250a578081fd5b61251386612406565b9450602086013567ffffffffffffffff8082111561252f578283fd5b61253b89838a01612422565b90965094506040880135915080821115612553578283fd5b5061256088828901612422565b969995985093965092949392505050565b60008060408385031215612583578182fd5b61258c83612406565b946020939093013593505050565b60008060008060008060c087890312156125b2578081fd5b6125bb87612406565b95506020870135945060408701359350606087013560ff811681146125de578182fd5b9598949750929560808101359460a0909101359350915050565b6000806040838503121561260a578182fd5b61261383612406565b9150602083013563ffffffff8116811461262b578182fd5b809150509250929050565b600060208284031215612647578081fd5b5035919050565b60008060408385031215612660578182fd5b823591506124af60208401612406565b600060208284031215612681578081fd5b81356001600160e01b03198116811461123c578182fd5b6000806000606084860312156126ac578283fd5b505081359360208301359350604090920135919050565b7f416363657373436f6e74726f6c3a206163636f756e74200000000000000000008152600083516126fb81601785016020880161286c565b7001034b99036b4b9b9b4b733903937b6329607d1b601791840191820152835161272c81602884016020880161286c565b01602801949350505050565b602081526000825180602084015261275781604085016020870161286c565b601f01601f19169190910160400192915050565b6020808252601d908201527f43616c6c6572206973206e6f74207468652077686974656c6973746572000000604082015260600190565b600082198211156127b5576127b5612905565b500190565b600063ffffffff8083168185168083038211156127d9576127d9612905565b01949350505050565b600063ffffffff8084168061280557634e487b7160e01b83526012600452602483fd5b92169190910492915050565b600081600019048311821515161561282b5761282b612905565b500290565b60008282101561284257612842612905565b500390565b600063ffffffff8381169083168181101561286457612864612905565b039392505050565b60005b8381101561288757818101518382015260200161286f565b83811115611cbc5750506000910152565b6000816128a7576128a7612905565b506000190190565b600181811c908216806128c357607f821691505b602082108114156128e457634e487b7160e01b600052602260045260246000fd5b50919050565b60006000198214156128fe576128fe612905565b5060010190565b634e487b7160e01b600052601160045260246000fdfe42455032303a207472616e7366657220616d6f756e74206578636565647320616c6c6f77616e636542455032303a207472616e7366657220616d6f756e7420657863656564732062616c616e636542455032303a2064656372656173656420616c6c6f77616e63652062656c6f77207a65726fa264697066735822122000641eb6dce85a4b150c29ed7e6f07f73d848227caed68e1f2085276c858f2f364736f6c63430008040033",
  "devdoc": {
    "kind": "dev",
    "methods": {
      "allowance(address,address)": {
        "details": "See {BEP20-allowance}."
      },
      "approve(address,uint256)": {
        "details": "See {BEP20-approve}. Requirements: - `spender` cannot be the zero address."
      },
      "balanceOf(address)": {
        "details": "See {BEP20-balanceOf}."
      },
      "cap()": {
        "details": "Returns the max cap of the token"
      },
      "decimals()": {
        "details": "Returns the token decimals."
      },
      "decreaseAllowance(address,uint256)": {
        "details": "Atomically decreases the allowance granted to `spender` by the caller. This is an alternative to {approve} that can be used as a mitigation for problems described in {BEP20-approve}. Emits an {Approval} event indicating the updated allowance. Requirements: - `spender` cannot be the zero address. - `spender` must have allowance for the caller of at least `subtractedValue`."
      },
      "delegate(address)": {
        "params": {
          "delegatee": "The address to delegate votes to"
        }
      },
      "delegateBySig(address,uint256,uint256,uint8,bytes32,bytes32)": {
        "params": {
          "delegatee": "The address to delegate votes to",
          "expiry": "The time at which to expire the signature",
          "nonce": "The contract state required to match the signature",
          "r": "Half of the ECDSA signature pair",
          "s": "Half of the ECDSA signature pair",
          "v": "The recovery byte of the signature"
        }
      },
      "delegates(address)": {
        "params": {
          "delegator": "The address to get delegatee for"
        }
      },
      "getCurrentVotes(address)": {
        "params": {
          "account": "The address to get votes balance"
        },
        "returns": {
          "_0": "The number of current votes for `account`"
        }
      },
      "getPriorVotes(address,uint256)": {
        "details": "Block number must be a finalized block or else this function will revert to prevent misinformation.",
        "params": {
          "account": "The address of the account to check",
          "blockNumber": "The block number to get the vote balance at"
        },
        "returns": {
          "_0": "The number of votes the account had as of the given block"
        }
      },
      "getRoleAdmin(bytes32)": {
        "details": "Returns the admin role that controls `role`. See {grantRole} and {revokeRole}. To change a role's admin, use {_setRoleAdmin}."
      },
      "grantRole(bytes32,address)": {
        "details": "Grants `role` to `account`. If `account` had not been already granted `role`, emits a {RoleGranted} event. Requirements: - the caller must have ``role``'s admin role."
      },
      "hasRole(bytes32,address)": {
        "details": "Returns `true` if `account` has been granted `role`."
      },
      "increaseAllowance(address,uint256)": {
        "details": "Atomically increases the allowance granted to `spender` by the caller. This is an alternative to {approve} that can be used as a mitigation for problems described in {BEP20-approve}. Emits an {Approval} event indicating the updated allowance. Requirements: - `spender` cannot be the zero address."
      },
      "name()": {
        "details": "Returns the token name."
      },
      "renounceRole(bytes32,address)": {
        "details": "Revokes `role` from the calling account. Roles are often managed via {grantRole} and {revokeRole}: this function's purpose is to provide a mechanism for accounts to lose their privileges if they are compromised (such as when a trusted device is misplaced). If the calling account had been revoked `role`, emits a {RoleRevoked} event. Requirements: - the caller must be `account`."
      },
      "revokeRole(bytes32,address)": {
        "details": "Revokes `role` from `account`. If `account` had been granted `role`, emits a {RoleRevoked} event. Requirements: - the caller must have ``role``'s admin role."
      },
      "supportsInterface(bytes4)": {
        "details": "See {IERC165-supportsInterface}."
      },
      "symbol()": {
        "details": "Returns the token symbol."
      },
      "totalSupply()": {
        "details": "See {BEP20-totalSupply}."
      },
      "transfer(address,uint256)": {
        "details": "See {BEP20-transfer}. Requirements: - `recipient` cannot be the zero address. - the caller must have a balance of at least `amount`."
      },
      "transferFrom(address,address,uint256)": {
        "details": "See {BEP20-transferFrom}. Emits an {Approval} event indicating the updated allowance. This is not required by the EIP. See the note at the beginning of {BEP20}; Requirements: - `sender` and `recipient` cannot be the zero address. - `sender` must have a balance of at least `amount`. - the caller must have allowance for `sender`'s tokens of at least `amount`."
      }
    },
    "stateVariables": {
      "_delegates": {
        "details": "A record of each accounts delegate"
      }
    },
    "version": 1
  },
  "userdoc": {
    "events": {
      "DelegateChanged(address,address,address)": {
        "notice": "An event thats emitted when an account changes its delegate"
      },
      "DelegateVotesChanged(address,uint256,uint256)": {
        "notice": "An event thats emitted when a delegate account's vote balance changes"
      }
    },
    "kind": "user",
    "methods": {
      "DELEGATION_TYPEHASH()": {
        "notice": "The EIP-712 typehash for the delegation struct used by the contract"
      },
      "DOMAIN_TYPEHASH()": {
        "notice": "The EIP-712 typehash for the contract's domain"
      },
      "checkpoints(address,uint32)": {
        "notice": "A record of votes checkpoints for each account, by index"
      },
      "delegate(address)": {
        "notice": "Delegate votes from `msg.sender` to `delegatee`"
      },
      "delegateBySig(address,uint256,uint256,uint8,bytes32,bytes32)": {
        "notice": "Delegates votes from signatory to `delegatee`"
      },
      "delegates(address)": {
        "notice": "Delegate votes from `msg.sender` to `delegatee`"
      },
      "getCurrentVotes(address)": {
        "notice": "Gets the current votes balance for `account`"
      },
      "getPriorVotes(address,uint256)": {
        "notice": "Determine the prior number of votes for an account as of a block number"
      },
      "nonces(address)": {
        "notice": "A record of states for signing / validating signatures"
      },
      "numCheckpoints(address)": {
        "notice": "The number of checkpoints for each account"
      }
    },
    "version": 1
  },
  "storageLayout": {
    "storage": [
      {
        "astId": 2704,
        "contract": "contracts/GalacticQuadrant.sol:GalacticQuadrant",
        "label": "_lgeWhitelistRounds",
        "offset": 0,
        "slot": "0",
        "type": "t_array(t_struct(WhitelistRound)2700_storage)dyn_storage"
      },
      {
        "astId": 2706,
        "contract": "contracts/GalacticQuadrant.sol:GalacticQuadrant",
        "label": "_lgeTimestamp",
        "offset": 0,
        "slot": "1",
        "type": "t_uint256"
      },
      {
        "astId": 2708,
        "contract": "contracts/GalacticQuadrant.sol:GalacticQuadrant",
        "label": "_lgePairAddress",
        "offset": 0,
        "slot": "2",
        "type": "t_address"
      },
      {
        "astId": 2710,
        "contract": "contracts/GalacticQuadrant.sol:GalacticQuadrant",
        "label": "_whitelister",
        "offset": 0,
        "slot": "3",
        "type": "t_address"
      },
      {
        "astId": 1377,
        "contract": "contracts/GalacticQuadrant.sol:GalacticQuadrant",
        "label": "_balances",
        "offset": 0,
        "slot": "4",
        "type": "t_mapping(t_address,t_uint256)"
      },
      {
        "astId": 1383,
        "contract": "contracts/GalacticQuadrant.sol:GalacticQuadrant",
        "label": "_allowances",
        "offset": 0,
        "slot": "5",
        "type": "t_mapping(t_address,t_mapping(t_address,t_uint256))"
      },
      {
        "astId": 1385,
        "contract": "contracts/GalacticQuadrant.sol:GalacticQuadrant",
        "label": "_totalSupply",
        "offset": 0,
        "slot": "6",
        "type": "t_uint256"
      },
      {
        "astId": 1387,
        "contract": "contracts/GalacticQuadrant.sol:GalacticQuadrant",
        "label": "_decimals",
        "offset": 0,
        "slot": "7",
        "type": "t_uint8"
      },
      {
        "astId": 1389,
        "contract": "contracts/GalacticQuadrant.sol:GalacticQuadrant",
        "label": "_symbol",
        "offset": 0,
        "slot": "8",
        "type": "t_string_storage"
      },
      {
        "astId": 1391,
        "contract": "contracts/GalacticQuadrant.sol:GalacticQuadrant",
        "label": "_name",
        "offset": 0,
        "slot": "9",
        "type": "t_string_storage"
      },
      {
        "astId": 24,
        "contract": "contracts/GalacticQuadrant.sol:GalacticQuadrant",
        "label": "_roles",
        "offset": 0,
        "slot": "10",
        "type": "t_mapping(t_bytes32,t_struct(RoleData)19_storage)"
      },
      {
        "astId": 1919,
        "contract": "contracts/GalacticQuadrant.sol:GalacticQuadrant",
        "label": "_delegates",
        "offset": 0,
        "slot": "11",
        "type": "t_mapping(t_address,t_address)"
      },
      {
        "astId": 1932,
        "contract": "contracts/GalacticQuadrant.sol:GalacticQuadrant",
        "label": "checkpoints",
        "offset": 0,
        "slot": "12",
        "type": "t_mapping(t_address,t_mapping(t_uint32,t_struct(Checkpoint)1924_storage))"
      },
      {
        "astId": 1937,
        "contract": "contracts/GalacticQuadrant.sol:GalacticQuadrant",
        "label": "numCheckpoints",
        "offset": 0,
        "slot": "13",
        "type": "t_mapping(t_address,t_uint32)"
      },
      {
        "astId": 1954,
        "contract": "contracts/GalacticQuadrant.sol:GalacticQuadrant",
        "label": "nonces",
        "offset": 0,
        "slot": "14",
        "type": "t_mapping(t_address,t_uint256)"
      }
    ],
    "types": {
      "t_address": {
        "encoding": "inplace",
        "label": "address",
        "numberOfBytes": "20"
      },
      "t_array(t_struct(WhitelistRound)2700_storage)dyn_storage": {
        "base": "t_struct(WhitelistRound)2700_storage",
        "encoding": "dynamic_array",
        "label": "struct LGEWhitelisted.WhitelistRound[]",
        "numberOfBytes": "32"
      },
      "t_bool": {
        "encoding": "inplace",
        "label": "bool",
        "numberOfBytes": "1"
      },
      "t_bytes32": {
        "encoding": "inplace",
        "label": "bytes32",
        "numberOfBytes": "32"
      },
      "t_mapping(t_address,t_address)": {
        "encoding": "mapping",
        "key": "t_address",
        "label": "mapping(address => address)",
        "numberOfBytes": "32",
        "value": "t_address"
      },
      "t_mapping(t_address,t_bool)": {
        "encoding": "mapping",
        "key": "t_address",
        "label": "mapping(address => bool)",
        "numberOfBytes": "32",
        "value": "t_bool"
      },
      "t_mapping(t_address,t_mapping(t_address,t_uint256))": {
        "encoding": "mapping",
        "key": "t_address",
        "label": "mapping(address => mapping(address => uint256))",
        "numberOfBytes": "32",
        "value": "t_mapping(t_address,t_uint256)"
      },
      "t_mapping(t_address,t_mapping(t_uint32,t_struct(Checkpoint)1924_storage))": {
        "encoding": "mapping",
        "key": "t_address",
        "label": "mapping(address => mapping(uint32 => struct GalacticQuadrant.Checkpoint))",
        "numberOfBytes": "32",
        "value": "t_mapping(t_uint32,t_struct(Checkpoint)1924_storage)"
      },
      "t_mapping(t_address,t_uint256)": {
        "encoding": "mapping",
        "key": "t_address",
        "label": "mapping(address => uint256)",
        "numberOfBytes": "32",
        "value": "t_uint256"
      },
      "t_mapping(t_address,t_uint32)": {
        "encoding": "mapping",
        "key": "t_address",
        "label": "mapping(address => uint32)",
        "numberOfBytes": "32",
        "value": "t_uint32"
      },
      "t_mapping(t_bytes32,t_struct(RoleData)19_storage)": {
        "encoding": "mapping",
        "key": "t_bytes32",
        "label": "mapping(bytes32 => struct AccessControl.RoleData)",
        "numberOfBytes": "32",
        "value": "t_struct(RoleData)19_storage"
      },
      "t_mapping(t_uint32,t_struct(Checkpoint)1924_storage)": {
        "encoding": "mapping",
        "key": "t_uint32",
        "label": "mapping(uint32 => struct GalacticQuadrant.Checkpoint)",
        "numberOfBytes": "32",
        "value": "t_struct(Checkpoint)1924_storage"
      },
      "t_string_storage": {
        "encoding": "bytes",
        "label": "string",
        "numberOfBytes": "32"
      },
      "t_struct(Checkpoint)1924_storage": {
        "encoding": "inplace",
        "label": "struct GalacticQuadrant.Checkpoint",
        "members": [
          {
            "astId": 1921,
            "contract": "contracts/GalacticQuadrant.sol:GalacticQuadrant",
            "label": "fromBlock",
            "offset": 0,
            "slot": "0",
            "type": "t_uint256"
          },
          {
            "astId": 1923,
            "contract": "contracts/GalacticQuadrant.sol:GalacticQuadrant",
            "label": "votes",
            "offset": 0,
            "slot": "1",
            "type": "t_uint256"
          }
        ],
        "numberOfBytes": "64"
      },
      "t_struct(RoleData)19_storage": {
        "encoding": "inplace",
        "label": "struct AccessControl.RoleData",
        "members": [
          {
            "astId": 16,
            "contract": "contracts/GalacticQuadrant.sol:GalacticQuadrant",
            "label": "members",
            "offset": 0,
            "slot": "0",
            "type": "t_mapping(t_address,t_bool)"
          },
          {
            "astId": 18,
            "contract": "contracts/GalacticQuadrant.sol:GalacticQuadrant",
            "label": "adminRole",
            "offset": 0,
            "slot": "1",
            "type": "t_bytes32"
          }
        ],
        "numberOfBytes": "64"
      },
      "t_struct(WhitelistRound)2700_storage": {
        "encoding": "inplace",
        "label": "struct LGEWhitelisted.WhitelistRound",
        "members": [
          {
            "astId": 2689,
            "contract": "contracts/GalacticQuadrant.sol:GalacticQuadrant",
            "label": "duration",
            "offset": 0,
            "slot": "0",
            "type": "t_uint256"
          },
          {
            "astId": 2691,
            "contract": "contracts/GalacticQuadrant.sol:GalacticQuadrant",
            "label": "amountMax",
            "offset": 0,
            "slot": "1",
            "type": "t_uint256"
          },
          {
            "astId": 2695,
            "contract": "contracts/GalacticQuadrant.sol:GalacticQuadrant",
            "label": "addresses",
            "offset": 0,
            "slot": "2",
            "type": "t_mapping(t_address,t_bool)"
          },
          {
            "astId": 2699,
            "contract": "contracts/GalacticQuadrant.sol:GalacticQuadrant",
            "label": "purchased",
            "offset": 0,
            "slot": "3",
            "type": "t_mapping(t_address,t_uint256)"
          }
        ],
        "numberOfBytes": "128"
      },
      "t_uint256": {
        "encoding": "inplace",
        "label": "uint256",
        "numberOfBytes": "32"
      },
      "t_uint32": {
        "encoding": "inplace",
        "label": "uint32",
        "numberOfBytes": "4"
      },
      "t_uint8": {
        "encoding": "inplace",
        "label": "uint8",
        "numberOfBytes": "1"
      }
    }
  }
}